:100000000C947E200C94A6200C94A6200C94A62080
:100010000C94A6200C94A6200C94A6200C94A62048
:100020000C94A6200C94A6200C94A6200C94A62038
:100030000C94A6200C94A6200C94A6200C94A62028
:100040000C9489250C94A6200C94C0260C94A62010
:100050000C94A6200C94A6200C94A6200C94A62008
:100060000C94A6200C94A6200300030003000000BB
:100070001F001F001F001F001F00000007000700D7
:100080000700070007000700000001000100010051
:100090000100010000007F007F007F007F007F00E3
:1000A00000000F000F000F0007000700070000000E
:1000B0003F003F003F003F003F0000000F000F00E7
:1000C0000F000F000F000F000000030003000300EB
:1000D000030003000000FF00FF00FF00FF00FF001F
:1000E00000001F001F001F000F000F000F00000086
:1000F0007F007F007F007F007F0000001F001F0047
:100100001F001F001F001F0000000700070007005E
:10011000070007000000FF00FF00FF00FF00FF00D6
:1001200000003F003F003F003F003F003F00000055
:100130007F007F007F007F007F0000003F003F00C6
:100140003F003F003F003F0000000F000F000F0086
:100150000F000F000000FF00FF00FF00FF00FF0086
:1001600000003F003F003F003F003F003F00000015
:100170003F003F003F003F003F0000007F007F0046
:100180007F007F007F007F0000000700070007005E
:100190000700070000007F007F007F007F007F00D6
:1001A00000003F003F003F001F001F001F00000035
:1001B0001F001F001F001F001F0000003F003F0026
:1001C0003F003F003F003F0000000300030003002A
:1001D0000300030000001F001F001F001F001F007E
:1001E00000007F007F007F00030003000300000089
:1001F00007000700070007000700000000000000DC
:1002000000000000000000000000070007000700D9
:100210000700070000000F000F000F000F000F0085
:1002200000000300030003000700070007000000B0
:100230001F001F001F001F001F0000000100010021
:1002400001000100010001000000030003000300A1
:100250000300030000001F001F001F001F001F00FD
:1002600000000700070007001F001F001F0000001C
:100270000300030003000300030000000700070061
:10028000070007000700070000000F000F000F0025
:100290000F000F0000007F007F007F007F007F00C5
:1002A0000000070007000700FF000000000000003A
:1002B000000000000000000000000000000000003E
:1002C000000000000000000000000000000000002E
:1002D000000000000000000000000000000000001E
:1002E0000000000000000000FF00FF000000000010
:1002F00000000000000000000000000000000000FE
:1003000000000000000000000000000000000000ED
:1003100000000000000000000000000000000000DD
:100320000000000000000000FF00FF00FF000000D0
:1003300000000000000000000000000000000000BD
:1003400000000000000000000000000000000000AD
:10035000000000000000000000000000000000009D
:100360000000000000000000FF00FF00FF00FF0091
:10037000000000000000000000000000000000007D
:10038000000000000000000000000000000000006D
:10039000000000000000000000000000000000005D
:1003A0000000000000000000FF00FF00FF00FF0051
:1003B000FF0000000000000000000000000000003E
:1003C000000000000000000000000000000000002D
:1003D000000000000000000000000000000000001D
:1003E0000000000000000000FF00FF00FF00FF0011
:1003F000FF00FF00000000000000000000000000FF
:1004000000000000000000000000000000000000EC
:1004100000000000000000000000000000000000DC
:100420000000000000000000FF00FF00FF00FF00D0
:10043000FF00FF00FF0000000000000000000000BF
:1004400000000000000000000000000000000000AC
:10045000000000000000000000000000000000009C
:100460000000000000000000FF00FF00FF00FF0090
:10047000FF00FF00FF00FF00000000000000000080
:10048000000000000000000000000000000000006C
:10049000000000000000000000000000000000005C
:1004A0000000000000000000FF00FF00FF00FF0050
:1004B000FF00FF00FF00FF00FF0000000000000041
:1004C000000000000000000000000000000000002C
:1004D000000000000000000000000000000000001C
:1004E0000000000000000000FF00FF00FF00FF0010
:1004F000FF00FF00FF00FF00FF00FF000000000002
:1005000000000000000000000000000000000000EB
:1005100000000000000000000000000000000000DB
:100520000000000000000000FF00FF00FF00FF00CF
:10053000FF00FF00FF00FF00FF00FF00FF000000C2
:1005400000000000000000000000000000000000AB
:10055000000000000000000000000000000000009B
:100560000000000000000000FF00FF00FF00FF008F
:10057000FF00FF00FF00FF00FF00FF00FF00FF0083
:10058000000000000000000000000000000000006B
:10059000000000000000000000000000000000005B
:1005A0000000000000000000FF00FF00FF00FF004F
:1005B000FF00FF00FF00FF00FF00FF00FF00FF0043
:1005C000FF0000000000000000000000000000002C
:1005D000000000000000000000000000000000001B
:1005E0000000000000000000FF00FF00FF00FF000F
:1005F000FF00FF00FF00FF00FF00FF00FF00FF0003
:10060000FF00FF00000000000000000000000000EC
:1006100000000000000000000000000000000000DA
:100620000000000000000000FF00FF00FF00FF00CE
:10063000FF00FF00FF00FF00FF00FF00FF00FF00C2
:10064000FF00FF00FF0000000000000000000000AD
:10065000000000000000000000000000000000009A
:100660000000000000000000FF00FF00FF00FF008E
:10067000FF00FF00FF00FF00FF00FF00FF00FF0082
:10068000FF00FF00FF00FF0000000000000000006E
:10069000000000000000000000000000000000005A
:1006A0000000000000000000FF00FF00FF00FF004E
:1006B000FF00FF00FF00FF00FF00FF00FF00FF0042
:1006C000FF00FF00FF00FF00FF000000000000002F
:1006D000000000000000000000000000000000001A
:1006E0000000000000000000FF00FF00FF00FF000E
:1006F000FF00FF00FF00FF00FF00FF00FF00FF0002
:10070000FF00FF00FF00FF00FF00FF0000000000EF
:1007100000000000000000000000000000000000D9
:100720000000000000000000FF00FF00FF00FF00CD
:10073000FF00FF00FF00FF00FF00FF00FF00FF00C1
:10074000FF00FF00FF00FF00FF00FF00FF000000B0
:100750000000000000000000000000000000000099
:100760000000000000000000FF00FF00FF00FF008D
:10077000FF00FF00FF00FF00FF00FF00FF00FF0081
:10078000FF00FF00FF00FF00FF00FF00FF00FF0071
:100790000000000000000000000000000000000059
:1007A0000000000000000000FF00FF00FF00FF004D
:1007B000FF00FF00FF00FF00FF00FF00FF00FF0041
:1007C000FF00FF00FF00FF00FF00FF00FF00FF0031
:1007D000FF0000000000000000000000000000001A
:1007E0000000000000000000FF00FF00FF00FF000D
:1007F000FF00FF00FF00FF00FF00FF00FF00FF0001
:10080000FF00FF00FF00FF00FF00FF00FF00FF00F0
:10081000FF00FF00000000000000000000000000DA
:100820000000000000000000FF00FF00FF00FF00CC
:10083000FF00FF00FF00FF00FF00FF00FF00FF00C0
:10084000FF00FF00FF00FF00FF00FF00FF00FF00B0
:10085000FF00FF00FF00000000000000000000009B
:100860000000000000000000FF00FF00FF00FF008C
:10087000FF00FF00FF00FF00FF00FF00FF00FF0080
:10088000FF00FF00FF00FF00FF00FF00FF00FF0070
:10089000FF00FF00FF00FF0000000000000000005C
:1008A0000000000000000000FF00FF00FF00FF004C
:1008B000FF00FF00FF00FF00FF00FF00FF00FF0040
:1008C000FF00FF00FF00FF00FF00FF00FF00FF0030
:1008D000FF00FF00FF00FF00FF000000000000001D
:1008E0000000000000000000FF00FF00FF00FF000C
:1008F000FF00FF00FF00FF00FF00FF00FF00FF0000
:10090000FF00FF00FF00FF00FF00FF00FF00FF00EF
:10091000FF00FF00FF00FF00FF00FF0000000000DD
:100920000000000000000000FF00FF00FF00FF00CB
:10093000FF00FF00FF00FF00FF00FF00FF00FF00BF
:10094000FF00FF00FF00FF00FF00FF00FF00FF00AF
:10095000FF00FF00FF00FF00FF00FF00FF0000009E
:100960000000000000000000FF00FF00FF00FF008B
:10097000FF00FF00FF00FF00FF00FF00FF00FF007F
:10098000FF00FF00FF00FF00FF00FF00FF00FF006F
:10099000FF00FF00FF00FF00FF00FF00FF00FF005F
:1009A0000000000000000000FF00FF00FF00FF004B
:1009B000FF00FF00FF00FF00FF00FF00FF00FF003F
:1009C000FF00FF00FF00FF00FF00FF00FF00FF002F
:1009D000FF00FF00FF00FF00FF00FF00FF00FF001F
:1009E000FF00000000000000FF00FF00FF00FF000C
:1009F000FF00FF00FF00FF00FF00FF00FF00FF00FF
:100A0000FF00FF00FF00FF00FF00FF00FF00FF00EE
:100A1000FF00FF00FF00FF00FF00FF00FF00FF00DE
:100A2000FF00FF0000000000FF00FF00FF00FF00CC
:100A3000FF00FF00FF00FF00FF00FF00FF00FF00BE
:100A4000FF00FF00FF00FF00FF00FF00FF00FF00AE
:100A5000FF00FF00FF00FF00FF00FF00FF00FF009E
:100A6000FF00FF00FF000000FF00FF00FF00FF008D
:100A7000FF00FF00FF00FF00FF00FF00FF00FF007E
:100A8000FF00FF00FF00FF00FF00FF00FF00FF006E
:100A9000FF00FF00FF00FF00FF00FF00FF00FF005E
:100AA000FF00FF00FF00FF00FF00FF00FF00FF004E
:100AB000FF00FF00FF00FF00FF00FF00FF00FF003E
:100AC000FF00FF00FF00FF00FF00FF00FF00FF002E
:100AD000FF00FF00FF00FF00FF00FF00FF00FF001E
:100AE000FF00FF00FF000000FF00FF00FF00FF000D
:100AF000FF00FF00FF00FF00FF00FF00FF00FF00FE
:100B0000FF00FF00FF00FF00FF00FF00FF00FF00ED
:100B1000FF00FF00FF00FF00FF00FF00FF00FF00DD
:100B2000FF00FF0000000000FF00FF00FF00FF00CB
:100B3000FF00FF00FF00FF00FF00FF00FF00FF00BD
:100B4000FF00FF00FF00FF00FF00FF00FF00FF00AD
:100B5000FF00FF00FF00FF00FF00FF00FF00FF009D
:100B6000FF00000000000000FF00FF00FF00FF008A
:100B7000FF00FF00FF00FF00FF00FF00FF00FF007D
:100B8000FF00FF00FF00FF00FF00FF00FF00FF006D
:100B9000FF00FF00FF00FF00FF00FF00FF00FF005D
:100BA0000000000000000000FF00FF00FF00FF0049
:100BB000FF00FF00FF00FF00FF00FF00FF00FF003D
:100BC000FF00FF00FF00FF00FF00FF00FF00FF002D
:100BD000FF00FF00FF00FF00FF00FF00FF0000001C
:100BE0000000000000000000FF00FF00FF00FF0009
:100BF000FF00FF00FF00FF00FF00FF00FF00FF00FD
:100C0000FF00FF00FF00FF00FF00FF00FF00FF00EC
:100C1000FF00FF00FF00FF00FF00FF0000000000DA
:100C20000000000000000000FF00FF00FF00FF00C8
:100C3000FF00FF00FF00FF00FF00FF00FF00FF00BC
:100C4000FF00FF00FF00FF00FF00FF00FF00FF00AC
:100C5000FF00FF00FF00FF00FF0000000000000099
:100C60000000000000000000FF00FF00FF00FF0088
:100C7000FF00FF00FF00FF00FF00FF00FF00FF007C
:100C8000FF00FF00FF00FF00FF00FF00FF00FF006C
:100C9000FF00FF00FF00FF00000000000000000058
:100CA0000000000000000000FF00FF00FF00FF0048
:100CB000FF00FF00FF00FF00FF00FF00FF00FF003C
:100CC000FF00FF00FF00FF00FF00FF00FF00FF002C
:100CD000FF00FF00FF000000000000000000000017
:100CE0000000000000000000FF00FF00FF00FF0008
:100CF000FF00FF00FF00FF00FF00FF00FF00FF00FC
:100D0000FF00FF00FF00FF00FF00FF00FF00FF00EB
:100D1000FF00FF00000000000000000000000000D5
:100D20000000000000000000FF00FF00FF00FF00C7
:100D3000FF00FF00FF00FF00FF00FF00FF00FF00BB
:100D4000FF00FF00FF00FF00FF00FF00FF00FF00AB
:100D5000FF00000000000000000000000000000094
:100D60000000000000000000FF00FF00FF00FF0087
:100D7000FF00FF00FF00FF00FF00FF00FF00FF007B
:100D8000FF00FF00FF00FF00FF00FF00FF00FF006B
:100D90000000000000000000000000000000000053
:100DA0000000000000000000FF00FF00FF00FF0047
:100DB000FF00FF00FF00FF00FF00FF00FF00FF003B
:100DC000FF00FF00FF00FF00FF00FF000000000029
:100DD0000000000000000000000000000000000013
:100DE0000000000000000000FF00FF00FF00FF0007
:100DF000FF00FF00FF00FF00FF00FF00FF00FF00FB
:100E0000FF00FF00FF00FF00FF00000000000000E7
:100E100000000000000000000000000000000000D2
:100E20000000000000000000FF00FF00FF00FF00C6
:100E3000FF00FF00FF00FF00FF00FF00FF00FF00BA
:100E4000FF00FF00FF00FF000000000000000000A6
:100E50000000000000000000000000000000000092
:100E60000000000000000000FF00FF00FF00FF0086
:100E7000FF00FF00FF00FF00FF00FF00FF00FF007A
:100E8000FF00FF00FF000000000000000000000065
:100E90000000000000000000000000000000000052
:100EA0000000000000000000FF00FF00FF00FF0046
:100EB000FF00FF00FF00FF00FF00FF00FF00FF003A
:100EC000FF00FF0000000000000000000000000024
:100ED0000000000000000000000000000000000012
:100EE0000000000000000000FF00FF00FF00FF0006
:100EF000FF00FF00FF00FF00FF00FF00FF00FF00FA
:100F0000FF000000000000000000000000000000E2
:100F100000000000000000000000000000000000D1
:100F20000000000000000000FF00FF00FF00FF00C5
:100F3000FF00FF00FF00FF00FF00FF00FF00FF00B9
:100F400000000000000000000000000000000000A1
:100F50000000000000000000000000000000000091
:100F60000000000000000000FF00FF00FF00FF0085
:100F7000FF00FF00FF00FF00FF00FF00FF00000078
:100F80000000000000000000000000000000000061
:100F90000000000000000000000000000000000051
:100FA0000000000000000000FF00FF00FF00FF0045
:100FB000FF00FF00FF00FF00FF00FF000000000037
:100FC0000000000000000000000000000000000021
:100FD0000000000000000000000000000000000011
:100FE0000000000000000000FF00FF00FF00FF0005
:100FF000FF00FF00FF00FF00FF00000000000000F6
:1010000000000000000000000000000000000000E0
:1010100000000000000000000000000000000000D0
:101020000000000000000000FF00FF00FF00FF00C4
:10103000FF00FF00FF00FF000000000000000000B4
:1010400000000000000000000000000000000000A0
:101050000000000000000000000000000000000090
:101060000000000000000000FF00FF00FF00FF0084
:10107000FF00FF00FF000000000000000000000073
:101080000000000000000000000000000000000060
:101090000000000000000000000000000000000050
:1010A0000000000000000000FF00FF00FF00FF0044
:1010B000FF00FF0000000000000000000000000032
:1010C0000000000000000000000000000000000020
:1010D0000000000000000000000000000000000010
:1010E0000000000000000000FF00FF00FF00FF0004
:1010F000FF000000000000000000000000000000F1
:1011000000000000000000000000000000000000DF
:1011100000000000000000000000000000000000CF
:101120000000000000000000FF00FF00FF00FF00C3
:1011300000000000000000000000000000000000AF
:10114000000000000000000000000000000000009F
:10115000000000000000000000000000000000008F
:101160000000000000000000FF00FF00FF00000082
:10117000000000000000000000000000000000006F
:10118000000000000000000000000000000000005F
:10119000000000000000000000000000000000004F
:1011A0000000000000000000FF00FF000000000041
:1011B000000000000000000000000000000000002F
:1011C000000000000000000000000000000000001F
:1011D000000000000000000000000000000000000F
:1011E0000000000000000000FF0000000000000000
:1011F00000000000000000000000000000000000EF
:1012000000000000000000000000000000000000DE
:1012100000000000000000000000000000000000CE
:1012200000000000000000000000000010003C0072
:101230007C0006001A001A0006007C003C0010002A
:10124000000000000000000000000000000000009E
:1012500010003C007C0006001A001A0006007C000A
:1012600038001000000000000000000010003C00EA
:101270007C0006001A001A0006007C003C001000EA
:10128000000000000000000000000000000000005E
:1012900010003C007C0006001A001A0006007C00CA
:1012A00038001000000000000000000010003C00AA
:1012B0007C0006001A001A0006007C003C001000AA
:1012C000000000000000000000000000000000001E
:1012D00010003C007C0006001A001A0006007C008A
:1012E00038001000000000000000000010003C006A
:1012F0003C0004001800180004003C003C001000F2
:1013000000000000000000000000000000000000DD
:1013100010003C003C0004001800180004003C00D1
:1013200038001000000000000000000010003C0029
:101330007C0006001A001A0006007C003C00100029
:10134000000000000000000000000000000000009D
:1013500010003C007C0006001A001A0006007C0009
:1013600038001000000000000000000010003C00E9
:101370007C0006001A001A0006007C003C001000E9
:10138000000000000000000000000000000000005D
:1013900010003C007C0006001A001A0006007C00C9
:1013A00038001000000000000000000000000000F5
:1013B000000000000000000000000000000000002D
:1013C000000000000000000000000000000000001D
:1013D000000000000000000000000000000000000D
:1013E00000000000000000000000000000000000FD
:1013F00000000000000000000000000000000000ED
:101400000000FF000000000000000000FF000000DE
:1014100000000000000000000000000000000000CC
:1014200000000000000000000000000000000000BC
:1014300000000000000000000000000000000000AC
:10144000FF00FF000000000000000000FF00FF00A0
:10145000000000000000000000000000000000008C
:10146000000000000000000000000000000000007C
:101470000000000000000000000000000000FF006D
:10148000FF00FF000000000000000000FF00FF0060
:10149000FF0000000000000000000000000000004D
:1014A000000000000000000000000000000000003C
:1014B0000000000000000000000000008100FF00AC
:1014C000FF00FF000000000000000000FF00FF0020
:1014D000FF001800000000000000000000000000F5
:1014E00000000000000000000000000000000000FC
:1014F0000000000000000000000081008100FF00EB
:10150000FF00FF000000000000000000FF00FF00DF
:10151000FF0018003C000000000000000000000078
:1015200000000000000000000000000000000000BB
:101530000000000000000000810081008100FF0029
:10154000FF00FF000000000000000000FF00FF009F
:10155000FF0018003C007E000000000000000000BA
:10156000000000000000000000000000000000007B
:10157000000000000000FF00810081008100FF00EA
:10158000FF00FF000000000000000000FF00FF005F
:10159000FF0018003C007E00FF000000000000007B
:1015A000000000000000000000000000000000003B
:1015B00000000000FF00FF00810081008100FF00AB
:1015C000FF00FF000000000000000000FF00FF001F
:1015D000FF0018003C007E00FF00E7000000000054
:1015E00000000000000000000000000000000000FB
:1015F0000000FF00FF00FF00810081008100FF006C
:10160000FF00FF000000000000000000FF00FF00DE
:10161000FF0018003C007E00FF00E700C300000050
:1016200000000000000000000000000000000000BA
:101630000000FF00FF00FF00810081008100FF002B
:10164000FF00FF000000000000000000FF00FF009E
:10165000FF0018003C007E00FF00E700C300000010
:10166000000000000000000000000000000000007A
:101670000000FF00FF00FF00810081008100FF00EB
:10168000FF00FF000000000000000000FF00FF005E
:10169000FF0018003C007E00FF00E700C3000000D0
:1016A000000000000000000000000000000000003A
:1016B000000000000000000000000000000000002A
:1016C000000000000000000000000000000000001A
:1016D000000000000000000000000000000000000A
:1016E00000000000000000000000000000000000FA
:1016F00000000000000000000000000000000000EA
:1017000000000000000000000000000000000000D9
:1017100000000000000000000000000000000000C9
:1017200000000000000000000000000000000000B9
:1017300000000000000000000000000000000000A9
:101740000000000000000000000000000000000099
:101750000000000000000000000000000000000089
:101760000000000000000000000000000000000079
:101770000000FF00FF00FF00810081008100FF00EA
:10178000FF00FF000000000000000000FF00FF005D
:10179000FF0018003C007E00FF00E700C3000000CF
:1017A0000000000000000000000000000000000039
:1017B0000000FF00FF00FF00810081008100FF00AA
:1017C000FF00FF000000000000000000FF00FF001D
:1017D000FF0018003C007E00FF00E700C30000008F
:1017E00000000000000000000000000000000000F9
:1017F0000000FF00FF00FF00810081008100FF006A
:10180000FF00FF000000000000000000FF00FF00DC
:10181000FF0018003C007E00FF00E700C30000004E
:1018200000000000000000000000000000000000B8
:101830000000FF00FF00FF00810081008100FF0029
:10184000FF00FF000000000000000000FF00FF009C
:10185000FF0018003C007E00FF00E700C30000000E
:101860000000000000000000000000000000000078
:101870000000FF00FF00FF00810081008100FF00E9
:10188000FF00FF000000000000000000FF00FF005C
:10189000FF0018003C007E00FF00E700C3000000CE
:1018A0000000000000000000000000000000000038
:1018B0000000000000000000000000000000000028
:1018C0000000000000000000000000000000000018
:1018D0000000000000000000000000000000000008
:1018E00000000000000000000000000000000000F8
:1018F00000000000000000000000000000000000E8
:1019000000000000000000000000000000000000D7
:1019100000000000000000000000000000000000C7
:1019200000000000000000000000000000000000B7
:1019300000000000000000000000000000000000A7
:101940000000000000000000000000000000000097
:101950000000000000000000000000000000000087
:101960000000000000000000000000000000000077
:101970000000FF00FF00FF00810081008100FF00E8
:10198000FF00FF000000000000000000FF00FF005B
:10199000FF0018003C007E00FF00E700C3000000CD
:1019A0000000000000000000000000000000000037
:1019B0000000FF00FF00FF00810081008100FF00A8
:1019C000FF00FF000000000000000000FF00FF001B
:1019D000FF0018003C007E00FF00E700C30000008D
:1019E00000000000000000000000000000000000F7
:1019F0000000FF00FF00FF00810081008100FF0068
:101A0000FF00FF000000000000000000FF00FF00DA
:101A1000FF0018003C007E00FF00E700C30000004C
:101A200000000000000000000000000000000000B6
:101A30000000FF00FF00FF00810081008100FF0027
:101A4000FF00FF000000000000000000FF00FF009A
:101A5000FF0018003C007E00FF00E700C30000000C
:101A600000000000000000000000700088008400FA
:101A70004200420084008800700000000000000066
:101A800070008800840042004200840088007000DA
:101A90000000000000007000880084004200420046
:101AA000840088007000000000007000F800FC0056
:101AB0007E007E00FC00F8007000000000000000C6
:101AC0007000F800FC007E007E00FC00F800700052
:101AD0000000000000007000F800FC007E007E00A6
:101AE000FC00F80070000000180018000000000062
:101AF00000000000000000000000000000000000E6
:101B000000000000000000000000000000000000D5
:101B100000000000000000000000000000000000C5
:101B20000000000000000000000018001800000085
:101B300000000000000000000000000000000000A5
:101B40000000000000000000000000000000000095
:101B50000000000000000000000000000000000085
:101B60000000000000000000000000001800180045
:101B70000000000000000000000000000000000065
:101B80000000000000000000000000000000000055
:101B90000000000000000000000000000000000045
:101BA000000000000000000000000000000018001D
:101BB000180000000000000000000000000000000D
:101BC0000000000000000000000000000000000015
:101BD0000000000000000000000000000000000005
:101BE00000000000000000000000000000000000F5
:101BF00018001800000000000000000000000000B5
:101C000000000000000000000000000000000000D4
:101C100000000000000000000000000000000000C4
:101C200000000000000000000000000000000000B4
:101C30000000180018000000000000000000000074
:101C40000000000000000000000000000000000094
:101C50000000000000000000000000000000000084
:101C60000000000000000000000000000000000074
:101C70000000000018001800000000000000000034
:101C80000000000000000000000000000000000054
:101C90000000000000000000000000000000000044
:101CA0000000000000000000000000000000000034
:101CB00000000000000018001800000000000000F4
:101CC0000000000000000000000000000000000014
:101CD0000000000000000000000000000000000004
:101CE00000000000000000000000000000000000F4
:101CF00000000000000000001800180000000000B4
:101D000000000000000000000000000000000000D3
:101D100000000000000000000000000000000000C3
:101D200000000000000000000000000000000000B3
:101D30000000000000000000000018001800000073
:101D40000000000000000000000000000000000093
:101D50000000000000000000000000000000000083
:101D60000000000000000000000000000000000073
:101D70000000000000000000000000001800180033
:101D80000000000000000000000000000000000053
:101D90000000000000000000000000000000000043
:101DA0000000000000000000000000000000000033
:101DB000000000000000000000000000000018000B
:101DC00018000000000000000000000000000000FB
:101DD0000000000000000000000000000000000003
:101DE00000000000000000000000000000000000F3
:101DF00000000000000000000000000000000000E3
:101E000018001800000000000000000000000000A2
:101E100000000000000000000000000000000000C2
:101E200000000000000000000000000000000000B2
:101E300000000000000000000000000000000000A2
:101E40000000180018000000000000000000000062
:101E50000000000000000000000000000000000082
:101E60000000000000000000000000000000000072
:101E70000000000000000000000000000000000062
:101E80000000000018001800000000000000000022
:101E90000000000000000000000000000000000042
:101EA0000000000000000000000000000000000032
:101EB0000000000000000000000000000000000022
:101EC00000000000000018001800000000000000E2
:101ED0000000000000000000000000000000000002
:101EE00000000000000000000000000000000000F2
:101EF00000000000000000000000000000000000E2
:101F000000000000000000001800180000000000A1
:101F100000000000000000000000000000000000C1
:101F200000000000000000000000000000000000B1
:101F300000000000000000000000000000000000A1
:101F40000000000000000000000018001800000061
:101F50000000000000000000000000000000000081
:101F60000000000000000000000000000000000071
:101F70000000000000000000000000000000000061
:101F80000000000000000000000000001800180021
:101F90000000000000000000000000000000000041
:101FA0000000000000000000000000000000000031
:101FB0000000000000000000000000000000000021
:101FC00000000000000000000000000000001800F9
:101FD00018000000000000000000000000000000E9
:101FE00000000000000000000000000000000000F1
:101FF00000000000000000000000000000000000E1
:1020000000000000000000000000000000000000D0
:102010001800180000000000000000000000000090
:1020200000000000000000000000000000000000B0
:1020300000000000000000000000000000000000A0
:102040000000000000000000000000000000000090
:102050000000180018000000000000000000000050
:102060000000000000000000000000000000000070
:102070000000000000000000000000000000000060
:102080000000000000000000000000000000000050
:102090000000000018001800000000000000000010
:1020A0000000000000000000000000000000000030
:1020B0000000000000000000000000000000000020
:1020C0000000000000000000000000000000000010
:1020D00000000000000018001800000000000000D0
:1020E00000000000000000000000000000000000F0
:1020F00000000000000000000000000000000000E0
:1021000000000000000000000000000000000000CF
:10211000000000000000000018001800000000008F
:1021200000000000000000000000000000000000AF
:10213000000000000000000000000000000000009F
:10214000000000000000000000000000000000008F
:10215000000000000000000000001800180000004F
:10216000000000000000000000000000000000006F
:10217000000000000000000000000000000000005F
:10218000000000000000000000000000000000004F
:10219000000000000000000000000000180018000F
:1021A000000000000000000000000000000000002F
:1021B000000000000000000000000000000000001F
:1021C000000000000000000000000000000000000F
:1021D00000000000000000000000000000001800E7
:1021E00018000000000000000000000000000000D7
:1021F00000000000000000000000000000000000DF
:1022000000000000000000000000000000000000CE
:1022100000000000000000000000000000000000BE
:10222000180018000000000000000000000000007E
:10223000000000000000000000000000000000009E
:10224000000000000000000000000000000000008E
:10225000000000000000000000000000000000007E
:10226000000018001800000000000000000000003E
:10227000000000000000000000000000000000005E
:10228000000000000000000000000000000000004E
:10229000000000000000000000000000000000003E
:1022A00000000000180018000000000000000000FE
:1022B000000000000000000000000000000000001E
:1022C000000000000000000000000000000000000E
:1022D00000000000000000000000000000000000FE
:1022E00000001800180000000000000000000000BE
:1022F00000000000000000000000000000000000DE
:1023000000000000000000000000000000000000CD
:1023100000000000000000000000000000000000BD
:10232000180018000000000000000000000000007D
:10233000000000000000000000000000000000009D
:10234000000000000000000000000000000000008D
:102350000000000000000000000000000000180065
:102360001800000000000000000000000000000055
:10237000000000000000000000000000000000005D
:10238000000000000000000000000000000000004D
:10239000000000000000000000000000180018000D
:1023A000000000000000000000000000000000002D
:1023B000000000000000000000000000000000001D
:1023C000000000000000000000000000000000000D
:1023D00000000000000000000000180018000000CD
:1023E00000000000000000000000000000000000ED
:1023F00000000000000000000000000000000000DD
:1024000000000000000000000000000000000000CC
:10241000000000000000000018001800000000008C
:1024200000000000000000000000000000000000AC
:10243000000000000000000000000000000000009C
:10244000000000000000000000000000000000008C
:10245000000000000000180018000000000000004C
:10246000000000000000000000000000000000006C
:10247000000000000000000000000000000000005C
:10248000000000000000000000000000000000004C
:10249000000000001800180000000000000000000C
:1024A000000000000000000000000000000000002C
:1024B000000000000000000000000000000000001C
:1024C000000000000000000000000000000000000C
:1024D00000001800180000000000000000000000CC
:1024E00000000000000000000000000000000000EC
:1024F00000000000000000000000000000000000DC
:1025000000000000000000000000000000000000CB
:10251000180018000000000000000000000000008B
:1025200000000000000000000000000000000000AB
:10253000000000000000000000000000000000009B
:102540000000000000000000000000000000180073
:102550001800000000000000000000000000000063
:10256000000000000000000000000000000000006B
:10257000000000000000000000000000000000005B
:10258000000000000000000000000000180018001B
:10259000000000000000000000000000000000003B
:1025A000000000000000000000000000000000002B
:1025B000000000000000000000000000000000001B
:1025C00000000000000000000000180018000000DB
:1025D00000000000000000000000000000000000FB
:1025E00000000000000000000000000000000000EB
:1025F00000000000000000000000000000000000DB
:10260000000000000000000018001800000000009A
:1026100000000000000000000000000000000000BA
:1026200000000000000000000000000000000000AA
:10263000000000000000000000000000000000009A
:10264000000000000000180018000000000000005A
:10265000000000000000000000000000000000007A
:10266000000000000000000000000000000000006A
:10267000000000000000000000000000000000005A
:10268000000000001800180000000000000000001A
:10269000000000000000000000000000000000003A
:1026A000000000000000000000000000000000002A
:1026B000000000000000000000000000000000001A
:1026C00000001800180000000000000000000000DA
:1026D00000000000000000000000000000000000FA
:1026E00000000000000000000000000000000000EA
:1026F00000000000000000000000000000000000DA
:102700001800180000000000000000000000000099
:1027100000000000000000000000000000000000B9
:1027200000000000000000000000000000000000A9
:102730000000000000000000000000000000180081
:102740001800000000000000000000000000000071
:102750000000000000000000000000000000000079
:102760000000000000000000000000000000000069
:102770000000000000000000000000001800180029
:102780000000000000000000000000000000000049
:102790000000000000000000000000000000000039
:1027A0000000000000000000000000000000000029
:1027B00000000000000000000000180018000000E9
:1027C0000000000000000000000000000000000009
:1027D00000000000000000000000000000000000F9
:1027E00000000000000000000000000000000000E9
:1027F00000000000000000001800180000000000A9
:1028000000000000000000000000000000000000C8
:1028100000000000000000000000000000000000B8
:1028200000000000000000000000000000000000A8
:102830000000000000001800180000000000000068
:102840000000000000000000000000000000000088
:102850000000000000000000000000000000000078
:102860000000000000000000000000000000000068
:102870000000000018001800000000000000000028
:102880000000000000000000000000000000000048
:102890000000000000000000000000000000000038
:1028A0000000000000000000000000000000000028
:1028B00000001800180000000000000000000000E8
:1028C0000000000000000000000000000000000008
:1028D00000000000000000000000000000000000F8
:1028E00000000000000000000000000000000000E8
:1028F00018001800000000000000000000000000A8
:1029000000000000000000000000000000000000C7
:1029100000000000000000000000000000000000B7
:10292000000000000000000000000000000018008F
:10293000180000000000000000000000000000007F
:102940000000000000000000000000000000000087
:102950000000000000000000000000000000000077
:102960000000000000000000000000001800180037
:102970000000000000000000000000000000000057
:102980000000000000000000000000000000000047
:102990000000000000000000000000000000000037
:1029A00000000000000000000000180018000000F7
:1029B0000000000000000000000000000000000017
:1029C0000000000000000000000000000000000007
:1029D00000000000000000000000000000000000F7
:1029E00000000000000000001800180000000000B7
:1029F00000000000000000000000000000000000D7
:102A000000000000000000000000000000000000C6
:102A100000000000000000000000000000000000B6
:102A2000000000000000000008000000000000009E
:102A30000000000000000000000000000000000096
:102A40000000000000000000000000000000000086
:102A50000000000000000000000000000000000076
:102A60000000000000000000080008000000000056
:102A70000000000000000000000000000000000056
:102A80000000000000000000000000000000000046
:102A90000000000000000000000000000000000036
:102AA000000000000000000008000800080000000E
:102AB0000000000000000000000000000000000016
:102AC0000000000000000000000000000000000006
:102AD00000000000000000000000000000000000F6
:102AE00000000000000000000800080008000800C6
:102AF00000000000000000000000000000000000D6
:102B000000000000000000000000000000000000C5
:102B100000000000000000000000000000000000B5
:102B20000000000000000000080008000800080085
:102B3000080000000000000000000000000000008D
:102B40000000000000000000000000000000000085
:102B50000000000000000000000000000000000075
:102B60000000000000000000080008000800080045
:102B70000800080000000000000000000000000045
:102B80000000000000000000000000000000000045
:102B90000000000000000000000000000000000035
:102BA0000000000000000000080008000800080005
:102BB00008000800080000000000000000000000FD
:102BC0000000000000000000000000000000000005
:102BD00000000000000000000000000000000000F5
:102BE00000000000000000000800080008000800C5
:102BF00008000800080008000000000000000000B5
:102C000000000000000000000000000000000000C4
:102C100000000000000000000000000000000000B4
:102C20000000000000000000080008000800080084
:102C30000800080008000800100000000000000064
:102C40000000000000000000000000000000000084
:102C50000000000000000000000000000000000074
:102C60000000000000000000080008000800080044
:102C70000800080008000800100020000000000004
:102C80000000000000000000000000000000000044
:102C90000000000000000000000000000000000034
:102CA0000000000000000000080008000800080004
:102CB0000800080008000800100020004000000084
:102CC0000000000000000000000000000000000004
:102CD00000000000000000000000000000000000F4
:102CE00000000000000000000800080008000800C4
:102CF00008000800080008001000200040008000C4
:102D000000000000000000000000000000000000C3
:102D100000000000000000000000000000000000B3
:102D20000000000000000000080008000800080083
:102D30000800080008000800100020004000800083
:102D40004000000000000000000000000000000043
:102D50000000000000000000000000000000000073
:102D60000000000000000000080008000800080043
:102D70000800080008000800100020004000800043
:102D800040002000000000000000000000000000E3
:102D90000000000000000000000000000000000033
:102DA0000000000000000000080008000800080003
:102DB0000800080008000800100020004000800003
:102DC0004000200010000000000000000000000093
:102DD00000000000000000000000000000000000F3
:102DE00000000000000000000800080008000800C3
:102DF00008000800080008001000200040008000C3
:102E0000400020001000080000000000000000004A
:102E100000000000000000000000000000000000B2
:102E20000000000000000000080008000800080082
:102E30000800080008000800100020004000800082
:102E40004000200010000800040000000000000006
:102E50000000000000000000000000000000000072
:102E60000000000000000000080008000800080042
:102E70000800080008000800100020004000800042
:102E800040002000100008000400020000000000C4
:102E90000000000000000000000000000000000032
:102EA0000000000000000000080008000800080002
:102EB0000800080008000800100020004000800002
:102EC0004000200010000800040002000400000080
:102ED00000000000000000000000000000000000F2
:102EE00000000000000000000800080008000800C2
:102EF00008000800080008001000200040008000C2
:102F00004000200010000800040002000400080037
:102F100000000000000000000000000000000000B1
:102F20000000000000000000080008000800080081
:102F30000800080008000800100020004000800081
:102F400040002000100008000400020004000800F7
:102F50001000000000000000000000000000000061
:102F60000000000000000000080008000800080041
:102F70000800080008000800100020004000800041
:102F800040002000100008000400020004000800B7
:102F90001000100000000000000000000000000011
:102FA0000000000000000000080008000800080001
:102FB0000800080008000800100020004000800001
:102FC0004000200010000800040002000400080077
:102FD00010001000100000000000000000000000C1
:102FE00000000000000000000800080008000800C1
:102FF00008000800080008001000200040008000C1
:103000004000200010000800040002000400080036
:103010001000100010001000000000000000000070
:103020000000000000000000080008000800080080
:103030000800080008000800100020004000800080
:1030400040002000100008000400020004000800F6
:103050001000100010001000100000000000000020
:103060000000000000000000080008000800080040
:103070000800080008000800100020004000800040
:1030800040002000100008000400020004000800B6
:1030900010001000100010001000100000000000D0
:1030A0000000000000000000080008000800080000
:1030B0000800080008000800100020004000800000
:1030C0004000200010000800040002000400080076
:1030D0001000100010001000100010001000000080
:1030E00000000000000000000800080008000800C0
:1030F00008000800080008001000200040008000C0
:103100004000200010000800040002000400080035
:10311000100010001000100010001000100010002F
:10312000000000000000000008000800080008007F
:10313000080008000800080010002000400080007F
:1031400040002000100008000400020004000800F5
:1031500010001000100010001000100010001000EF
:10316000100000000000000008000800080008002F
:10317000080008000800080010002000400080003F
:1031800040002000100008000400020004000800B5
:1031900010001000100010001000100010001000AF
:1031A00010001000000000000800080008000800DF
:1031B00008000800080008001000200040008000FF
:1031C0004000200010000800040002000400080075
:1031D000100010001000100010001000100010006F
:1031E000100010001000000008000800080008008F
:1031F00008000800080008001000200040008000BF
:103200004000200010000800040002000400080034
:10321000100010001000100010001000100010002E
:103220001000100010001000000008000800080046
:10323000080008000800080010002000400080007E
:1032400040002000100008000400020004000800F4
:1032500010001000100010001000100010001000EE
:10326000100010001000100000000000080008000E
:10327000080008000800080010002000400080003E
:1032800040002000100008000400020004000800B4
:1032900010001000100010001000100010001000AE
:1032A00010001000100010000000000000000800D6
:1032B00008000800080008001000200040008000FE
:1032C0004000200010000800040002000400080074
:1032D000100010001000100010001000100010006E
:1032E000100010001000100000000000000000009E
:1032F00008000800080008001000200040008000BE
:103300004000200010000800040002000400080033
:10331000100010001000100010001000100010002D
:10332000100010001000100000000000000000005D
:103330000000080008000800100020004000800085
:1033400040002000100008000400020004000800F3
:1033500010001000100010001000100010001000ED
:10336000100010001000100000000000000000001D
:10337000000000000800080010002000400080004D
:1033800040002000100008000400020004000800B3
:1033900010001000100010001000100010001000AD
:1033A00010001000100010000000000000000000DD
:1033B0000000000000000800100020004000800015
:1033C0004000200010000800040002000400080073
:1033D000100010001000100010001000100010006D
:1033E000100010001000100000000000000000009D
:1033F00000000000000000001000200040008000DD
:103400004000200010000800040002000400080032
:10341000100010001000100010001000100010002C
:10342000100010001000100000000000000000005C
:1034300000000000000000000000200040008000AC
:1034400040002000100008000400020004000800F2
:1034500010001000100010001000100010001000EC
:10346000100010001000100000000000000000001C
:10347000000000000000000000000000400080008C
:1034800040002000100008000400020004000800B2
:1034900010001000100010001000100010001000AC
:1034A00010001000100010000000000000000000DC
:1034B000000000000000000000000000000080008C
:1034C0004000200010000800040002000400080072
:1034D000100010001000100010001000100010006C
:1034E000100010001000100000000000000000009C
:1034F00000000000000000000000000000000000CC
:103500004000200010000800040002000400080031
:10351000100010001000100010001000100010002B
:10352000100010001000100000000000000000005B
:10353000000000000000000000000000000000008B
:103540000000200010000800040002000400080031
:1035500010001000100010001000100010001000EB
:10356000100010001000100000000000000000001B
:10357000000000000000000000000000000000004B
:103580000000000010000800040002000400080011
:1035900010001000100010001000100010001000AB
:1035A00010001000100010000000000000000000DB
:1035B000000000000000000000000000000000000B
:1035C00000000000000008000400020004000800E1
:1035D000100010001000100010001000100010006B
:1035E000100010001000100000000000000000009B
:1035F00000000000000000000000000000000000CB
:1036000000000000000000000400020004000800A8
:10361000100010001000100010001000100010002A
:10362000100010001000100000000000000000005A
:10363000000000000000000000000000000000008A
:10364000000000000000000000000200040008006C
:1036500010001000100010001000100010001000EA
:10366000100010001000100000000000000000001A
:10367000000000000000000000000000000000004A
:10368000000000000000000000000000040008002E
:1036900010001000100010001000100010001000AA
:1036A00010001000100010000000000000000000DA
:1036B000000000000000000000000000000000000A
:1036C00000000000000000000000000000000800F2
:1036D000100010001000100010001000100010006A
:1036E000100010001000100000000000000000009A
:1036F00000000000000000000000000000000000CA
:1037000000000000000000000000000000000000B9
:103710001000100010001000100010001000100029
:103720001000100010001000000000000000000059
:103730000000000000000000000000000000000089
:103740000000000000000000000000000000000079
:1037500000001000100010001000100010001000F9
:103760001000100010001000000000000000000019
:103770000000000000000000000000000000000049
:103780000000000000000000000000000000000039
:1037900000000000100010001000100010001000C9
:1037A00010001000100010000000000000000000D9
:1037B0000000000000000000000000000000000009
:1037C00000000000000000000000000000000000F9
:1037D0000000000000001000100010001000100099
:1037E0001000100010001000000000000000000099
:1037F00000000000000000000000000000000000C9
:1038000000000000000000000000000000000000B8
:103810000000000000000000100010001000100068
:103820001000100010001000000000000000000058
:103830000000000000000000000000000000000088
:103840000000000000000000000000000000000078
:103850000000000000000000000010001000100038
:103860001000100010001000000000000000000018
:103870000000000000000000000000000000000048
:103880000000000000000000000000000000000038
:103890000000000000000000000000001000100008
:1038A00010001000100010000000000000000000D8
:1038B0000000000000000000000000000000000008
:1038C00000000000000000000000000000000000F8
:1038D00000000000000000000000000000001000D8
:1038E0001000100010001000000000000000000098
:1038F00000000000000000000000000000000000C8
:1039000000000000000000000000000000000000B7
:1039100000000000000000000000000000000000A7
:103920001000100010001000000000000000000057
:103930000000000000000000000000000000000087
:103940000000000000000000000000000000000077
:103950000000000000000000000000000000000067
:103960000000100010001000000000000000000027
:103970000000000000000000000000000000000047
:103980000000000000000000000000000000000037
:103990000000000000000000000000000000000027
:1039A00000000000100010000000000000000000F7
:1039B0000000000000000000000000000000000007
:1039C00000000000000000000000000000000000F7
:1039D00000000000000000000000000000000000E7
:1039E0000000000000001000FF0081008100810045
:1039F00081008100810081008100810081008100BF
:103A000081008100810081008100810081008100AE
:103A1000810081008100810081008100810081009E
:103A2000810081008100FF00FF00FF00FF00FF0018
:103A3000810081008100810081008100810081007E
:103A4000810081008100810081008100810081006E
:103A50008100810081008100810081008100FF00E0
:103A6000FF00FF00FF00FF00FF00FF00FF00FF005E
:103A7000FF00FF00FF00FF00C300C300C300C3003E
:103A8000C300C300C300C300C300C300C300C3001E
:103A9000C300C300C300C300FF00FF00FF00FF001E
:103AA000FF00FF00FF00FF00FF00FF00FF00FF001E
:103AB000FF00FF00FF00FF00FF00FF00FF00FF000E
:103AC000E700E700E700E700E700E700E700E700BE
:103AD000FF00FF00FF00FF00FF00FF00FF00FF00EE
:103AE000FF00FF00FF00FF00FF00FF00FF00FF00DE
:103AF000FF00FF00FF00FF00FF00FF00FF00FF00CE
:103B0000FF00FF00FF00FF00FF00FF00FF00FF00BD
:103B1000FF00FF00FF00FF00FF00FF00FF00FF00AD
:103B2000FF00FF00FF00FF00000000000000000099
:103B30000000000000000000000000000000000085
:103B40000000000000000000000000000000000075
:103B500000000E001800BE006D003D003C003D005E
:103B60006D00BE0018000E000800080008000000EC
:103B70000000000000000000000000000000000045
:103B80000000000000000000000000000000000035
:103B9000000070001900BE006C003C003C003C00BE
:103BA0006C00BE001900700000000000000008005A
:103BB00008000800000000000000000000000000F5
:103BC00000000000000000000000000000000000F5
:103BD00000000E001800BE006D003D003C003D00DE
:103BE0006D00BE0018000E00000000000000000084
:103BF00000000000080008000800000000000000AD
:103C000000000000000000000000000000000000B4
:103C1000000070001900BE006C003C003C003C003D
:103C20006C00BE00190070000000000000000000E1
:103C3000000000000000000000000800080008006C
:103C40000000000000000000000000000000000074
:103C500000000E001800BE006D003D003C003D005D
:103C60006D00BE0018000E00000000000000000003
:103C70000000000000000000000000000000000044
:103C8000080008000800000000000000000000001C
:103C9000000070001900BE006C003C003C003C00BD
:103CA0006C00BE0019007000000000000000000061
:103CB0000000000000000000000000000000000004
:103CC00000000000000008000800080000000000DC
:103CD00000000E001800BE006D003D003C003D00DD
:103CE0006D00BE0018000E00000000000000000083
:103CF00000000000000000000000000000000000C4
:103D000000000000000000000000000008000800A3
:103D1000080070001900BE006C003C003C003C0034
:103D20006C00BE00190070000000000000000000E0
:103D30000000000000000000000000000000000083
:103D40000000000000000000000000000000000073
:103D50000000100054003800920044002800440085
:103D60009200380054001000000000000000000025
:103D70000000000000000000000000000000000043
:103D80000000000000000000000000000000000033
:103D90000000000000000000000000000000000023
:103DA0000000000000000000000000000000000013
:103DB000000808080800080000361224000000006F
:103DC0000000143E143E140000081E281C0A3C008B
:103DD00000003234081626000000182418261E00A1
:103DE0000018181000000000000810101010080043
:103DF00000100808080810000000082A082A080017
:103E0000000008083E080800000000000018081024
:103E1000000000003E00000000000000000C0C004C
:103E20000000020408102000001C262626261C0084
:103E3000000C1C2C0C0C1E00001C260C18303E0024
:103E4000003E061C06261C000026263E060606002E
:103E5000003E303C06261C00001C203C26261C0090
:103E6000003E060C18181800001C261C26261C00F4
:103E7000001C261E06261C0000000C0C000C0C006A
:103E800000000C0C000C10000000040810080400D6
:103E90000000003E003E0000000010080408100072
:103EA000001C220408000800001C262A2E201E00E8
:103EB000001C22223E222200003C223C22223C0006
:103EC000001C222020221C00003C222222223C0036
:103ED000003E203C20203E00003E203C20202000D0
:103EE000001C202026221E000022223E2222220028
:103EF000001C080808081C00003E020202221C00E8
:103F000000222438382422000020202020203E00D7
:103F10000022362A222222000022322A26222200D1
:103F2000001C222222221C00003C223C20202000D7
:103F300000182424242C1A00003C223C22222200B7
:103F4000001E201C02221C00003E08080808080071
:103F50000022222222221C00002222221414080005
:103F6000002222222A2A1400002214080814220007
:103F70000022221408080800003E040810203E0019
:103F8000001C101010101C0000201008040200007B
:103F9000001C040404041C0000081422000000009B
:103FA0000008142200003E00000804000000000089
:103FB00000001C021E223E000020203C22223C0069
:103FC00000001C2020201C000002021E22221E00D5
:103FD00000001C223E201C00000E10103C1010009F
:103FE00000001E223E02021C0020203C2222220051
:103FF0000008001808081C000008001E0202221C0D
:1040000000202024382422000018080808081C007A
:1040100000002A3E2A2A2A0000002C3222222200F6
:1040200000001C2222221C0000003C223C202020F8
:1040300000001C241C04040600002E302020200058
:1040400000001E201C023C0000083E080808060074
:104050000000222222221E00000022222214080038
:10406000000022222A2A1400000022140814220030
:10407000000022221E02041800003E0408103E0028
:1040800000040808100808040808080808080808B8
:1040900000100808040808100000102A040000009E
:1040A00000000000240027002A0000000000250076
:1040B00028002B0000000000230026002900040433
:1040C00004040404040402020202020203030303C0
:1040D000030301020408102040800102040810209C
:1040E0000102040810200000000700020100000384
:1040F00004060000000000000000092811241FBE73
:10410000CFEFD8E0DEBFCDBF11E0A0E0B1E0ECEC36
:10411000F2E502C005900D92A238B107D9F712E07E
:10412000A2E8B1E001C01D92A239B107E1F710E4A5
:10413000CCEFD0E404C02297FE010E942929CA3F97
:10414000D107C9F70E9482250C9464290C940000C1
:10415000A0E0B0E0EEEAF0E20C943529EC01A88092
:10416000B980CA80DB80A114B104C104D10441F438
:1041700084E2A82E89EDB82E8BE5C82E87E0D82ED4
:10418000C601B5012DE133EF41E050E00E94F8286F
:1041900027EA31E440E050E00E94A4287B018C0132
:1041A000C601B5012DE133EF41E050E00E94F8284F
:1041B000CA01B9012CEE34EF4FEF5FEF0E94A42843
:1041C0006E0D7F1D801F911F97FF04C061507040CE
:1041D00080409048688379838A839B839B01AC01EC
:1041E0005F77B901CA01CDB7DEB7EAE00C94512977
:1041F0000E94A82008958EE691E00E94A8200895CC
:1042000060936E0170936F018093700190937101C0
:104210000895CF92DF92EF92FF920F931F93CF9367
:10422000DF93FC01EB01BA01A901D80197018601D6
:104230008630910509F486C087309105BCF4823040
:10424000910509F450C0833091053CF4009759F171
:104250008130910509F003C134C08430910509F41F
:1042600058C0853091050CF065C048C08A30910572
:1042700009F4A8C08B3091054CF48830910509F4FD
:104280007FC0893091050CF08EC06BC08C309105D9
:1042900009F4BAC08C3091050CF4A3C08D3091059F
:1042A00009F0DDC0C7C089E090E09983888382E38C
:1042B00090E08D939C93DA011D921C9285E090E032
:1042C0006CC08EE390E0998388831D921C9289E0F4
:1042D00090E0DA018D939C93DB01ED93FC93D70181
:1042E000ED93FC93BCC086E090E09983888384E6DC
:1042F00090E08D939C9387E490E07BC08BE190E00D
:104300009983888382E390E08D939C938DE490E081
:1043100085C082E090E09983888384EF91E08D935B
:104320009C9388E690E0DA018D939C93DB01ED93FA
:10433000FC9367C01D921C92D7011D921C9280E0D5
:1043400091E016C01D921C92D7011D921C928AE129
:1043500091E0909373018093720181E090E0F60107
:104360007CC01D921C92D7011D921C928AE191E0A3
:104370009093730180937201F801118210826FC0D3
:104380008DE390E0998388831D921C928AE690E0E9
:10439000DA018D939C9383E090E0FB01918380830D
:1043A00081E090E043C01D921C92F70111821082BF
:1043B0008AE291E0909373018093720181E090E032
:1043C000D60135C01D921C92F7011182108288E43B
:1043D00091E09093730180937201D6011D921C921B
:1043E0003EC08FE390E0998388831D921C9287EAF8
:1043F00090E0FA019183808384E090E0DB018D936B
:104400009C9381E090E028C085E090E099838883C8
:1044100084EF91E08D939C9386EE90E0DA018D938A
:104420009C9381E090E0FB0191838083D9018D937F
:104430009C9315C089E090E0998388838AEF90E08F
:104440008D939C938BEE90E0FA019183808381E0C1
:1044500090E0DB018D939C93F90191838083DF9140
:10446000CF911F910F91FF90EF90DF90CF90089523
:104470001F93CF93DF93162FC82FD0E016C087E08D
:1044800060E00E947326812F90E08C239D23892B6E
:1044900019F086E061E002C086E060E00E947326C9
:1044A00087E061E00E9473261695112341F7DF91A2
:1044B000CF911F91089561E00E947326089560E0F6
:1044C0000E94732608950F931F93182F062F88E0DC
:1044D0000E945F2285E064E00E943822812F60E420
:1044E0000E943822802F68E00E94382288E00E94D3
:1044F0005B221F910F910895FC018032910590F588
:1045000077FD30C0683071056CF59B012370307009
:1045100088E090E002C0959587952A95E2F7982F5C
:1045200075956795759567952E2F220F260FE22FAB
:10453000FF27E7FDF095442329F0EE56FE4F8081DA
:10454000892B05C0EE56FE4F90958081892380838C
:10455000E22FFF27E7FDF095EE56FE4F822F608198
:104560000E94632208953F924F925F926F927F92D2
:104570008F929F92AF92BF92CF92DF92EF92FF9273
:104580000F931F93CF93DF93382E492EFB013901F0
:1045900040524F3508F040E0C301019662E070E000
:1045A0000E94C328582E6F01EE24FF24A42EBB24A2
:1045B000A3E0AA0CBB1CAA95E1F7F701EA0DFB1DCD
:1045C000E855F24CE491232D342DC9018C01C5E04E
:1045D000D0E08E2E9924C4010C2E02C095958795AB
:1045E0000A94E2F780FF04C0C801B601462D03C05B
:1045F000C801B601452D0E947C2221970F5F1F4FF5
:104600008FEFCF3FD80739F70894E11CF11C0894CD
:10461000C11CD11C88E0E816F10479F6DF91CF9136
:104620001F910F91FF90EF90DF90CF90BF90AF90D0
:104630009F908F907F906F905F904F903F900895E4
:104640004F925F926F927F928F929F92AF92BF92A2
:10465000CF92DF92EF92FF920F931F93CF93DF934E
:104660006EE070E080E090E00E947A28DC01CB01EF
:104670006AE871E048E851E02CE831E002E811E036
:10468000FEE8EF2EF1E0FF2EE4E7CE2EE1E0DE2E95
:104690000E94092180918E0190918F010197A9F0CC
:1046A00000E010E056E0452E512C4CE0842E912C79
:1046B00032E1632E712C28E1A22EB12C9EE1C92E8D
:1046C000D12C84E2E82EF12C72C110928701109255
:1046D000860107E0C02ED12C66C010928501109291
:1046E00084014CC0C0E0D0E0E0918C01F0918D01DC
:1046F0008091840190918501E80FF91F15E0EE0F7C
:10470000FF1F1A95E1F7EC0FFD1FEE0FFF1FE85991
:10471000FF4FE49100E010E0EE2EFF24C601801B65
:10472000910B970102C0359527958A95E2F720FFF6
:1047300004C0CE01B80141E003C0CE01B80140E0A1
:104740000E947C220F5F1F4F0830110539F7219618
:10475000C032D10549F660918201709183018827AA
:1047600077FD8095982F0E94D125809184019091AA
:1047700085010196909385018093840120918401A5
:104780003091850180918A0190918B01281739071A
:104790000CF4A8CF809186019091870101969093A7
:1047A0008701809386012091860130918701809155
:1047B000880190918901281739070CF48ECF19C10F
:1047C000E0917201F0917301E80FF91F20917401DB
:1047D0003091750188279927801B910B60E070E06C
:1047E00040810E94B3222091900130919101C091AB
:1047F0007201D0917301FE0101900020E9F7319719
:10480000EC1BFD0BC90101968E179F0710F040E2CB
:1048100003C0C20FD31F49812091740130917501EB
:10482000C201801B910B60E070E00E94B3222091D6
:10483000900130919101C0917201D0917301FE01FC
:1048400001900020E9F73197EC1BFD0BC90102969E
:104850008E179F0710F040E203C0C20FD31F4A819A
:104860002091740130917501C401801B910B60E0AF
:1048700070E00E94B3222091900130919101C0918B
:104880007201D0917301FE0101900020E9F7319788
:10489000EC1BFD0BC90103968E179F0710F040E239
:1048A00003C0C20FD31F4B81209174013091750159
:1048B000C301801B910B60E070E00E94B322209145
:1048C000900130919101C0917201D0917301FE016C
:1048D00001900020E9F73197EC1BFD0BC90104960C
:1048E0008E179F0710F040E203C0C20FD31F4C8108
:1048F0002091740130917501C501801B910B60E01E
:1049000070E00E94B3222091900130919101C091FA
:104910007201D0917301FE0101900020E9F73197F7
:10492000EC1BFD0BC90105968E179F0710F040E2A6
:1049300003C0C20FD31F4D812091740130917501C6
:10494000C601801B910B60E070E00E94B3222091B1
:10495000900130919101C0917201D0917301FE01DB
:1049600001900020E9F73197EC1BFD0BC901069679
:104970008E179F0710F040E203C0C20FD31F4E8175
:104980002091740130917501C701801B910B60E08B
:1049900070E00E94B32260918201709183018827A8
:1049A00077FD8095982F0E94D1250F5F1F4F809132
:1049B000900190919101063011050CF401CF019600
:1049C0009093910180939001A0917201B091730135
:1049D000FD0101900020E9F73197EA1BFB0B8E17D0
:1049E0009F0718F400E010E0E2CF109291011092BE
:1049F0009001DF91CF911F910F91FF90EF90DF9089
:104A0000CF90BF90AF909F908F907F906F905F906E
:104A10004F9008951F93182F88E00E945F2284E032
:104A200064E00E943822812F60E80E94382280E0F2
:104A300061E00E94382288E00E945B221F91089565
:104A40001F9388E00E945F2285E064E00E94382284
:104A500080E060E40E94382210E080E060E80E947C
:104A600038221F5F1033C9F788E00E945B22E2E919
:104A7000F1E0119281E0E23FF807D9F71F91089524
:104A80001F9388E061E00E94532688E061E00E9465
:104A9000732687E061E00E94532686E061E00E9471
:104AA000532680E00E940A2588E20E940A2584E1BC
:104AB0000E940A2581E00E940A2583E00E940A25BF
:104AC00010E0812F60E00E9463221F5F1034C9F75D
:104AD00064E670E080E090E00E94D1251F91089587
:104AE0000E9440258FE792E040E855E260E070E0E8
:104AF0000E94FD2680E00E9435260E949C280E948C
:104B0000202508950E94FB250E9470250E942023E5
:104B1000FDCF1F920F920FB60F9211242F933F9348
:104B20008F939F93AF93BF938091F6019091F7017C
:104B3000A091F801B091F9013091FA010196A11DFF
:104B4000B11D232F2D5F2D3720F02D570196A11D6C
:104B5000B11D2093FA018093F6019093F701A09381
:104B6000F801B093F9018091F2019091F301A091C5
:104B7000F401B091F5010196A11DB11D8093F201E0
:104B80009093F301A093F401B093F501BF91AF911D
:104B90009F918F913F912F910F900FBE0F901F907B
:104BA0001895EF92FF920F931F937B018C018FB7A3
:104BB000F8944091F6015091F7016091F8017091DD
:104BC000F9018FBF2FB7F8948091F6019091F7010A
:104BD000A091F801B091F9012FBF841B950BA60B92
:104BE000B70BE816F9060A071B0760F71F910F912C
:104BF000FF90EF900895789484B5826084BD84B569
:104C0000816084BD85B5826085BD85B5816085BDC7
:104C1000EEE6F0E0808181608083E1E8F0E0808171
:104C200082608083808181608083E0E8F0E0808121
:104C300081608083E1EBF0E0808184608083E0EB41
:104C4000F0E0808181608083EAE7F0E08081846029
:104C50008083808182608083808181608083808185
:104C6000806880831092C10008958F7090917601C2
:104C70009295990F990F907C982B90937C0080913E
:104C80007A00806480937A0080917A0086FDFCCF60
:104C90002091780040917900942F80E030E0282B1B
:104CA000392BC9010895282F30E0C9018E529F4B3E
:104CB000FC01949122543F4BF9018491882391F097
:104CC000E82FF0E0EE0FFF1FE056FF4BA591B491E7
:104CD000662329F48C91909589238C9308958C9167
:104CE000892B8C930895482F50E0CA018A519F4B1D
:104CF000FC012491CA018E529F4BFC0194914254B5
:104D00005F4BFA0134913323D1F1222331F1233067
:104D100021F4809180008F7705C0243031F4809198
:104D200080008F7D8093800018C0213019F484B5F5
:104D30008F7704C0223021F484B58F7D84BD0DC0EF
:104D4000263021F48091B0008F7705C0273029F4F8
:104D50008091B0008F7D8093B000E32FF0E0EE0FE4
:104D6000FF1FE655FF4BA591B491662329F48C9162
:104D7000909589238C9308958C91892B8C93089519
:104D80001F920F920FB60F9211242F933F934F93C0
:104D90005F936F937F938F939F93AF93BF93EF93A3
:104DA000FF934091C600E0917B02F0917C02CF011D
:104DB000019660E870E00E94C3289C0180917D020A
:104DC00090917E022817390739F0E550FE4F408355
:104DD00030937C0220937B02FF91EF91BF91AF91C2
:104DE0009F918F917F916F915F914F913F912F9103
:104DF0000F900FBE0F901F9018955F926F927F9249
:104E00008F929F92AF92BF92CF92DF92EF92FF92DA
:104E10000F931F93CF93DF93EC013A014B01413481
:104E200082E458078FE0680780E078070CF07FC0C5
:104E300060E874E88EE190E0A40193010E94F828F4
:104E40002150304040405040CA01B90122E030E0DA
:104E500040E050E00E94F82859016A01A60195013E
:104E6000209530954095509594E0220F331F441FB4
:104E7000551F9A95D1F760E074E284EF90E00E94AC
:104E8000F828CA01B9012FEF30E040E050E00E945D
:104E9000A428A40193010E94F828C90181509F4FC2
:104EA000181619061CF4522E5A9403C05524539414
:104EB000521A60E079E08DE390E0A40193010E9432
:104EC000F8282150304040405040CA01B90122E04A
:104ED00030E040E050E00E94F82820953095409561
:104EE000509583E0220F331F441F551F8A95D1F739
:104EF00060E074E284EF90E00E94F828CA01B901F2
:104F00002FEF30E040E050E00E94A428A40193017C
:104F10000E94F828C90181509F4F181619061CF4E9
:104F2000822F815002C081E0821B851500F5E88543
:104F3000F98581E090E00A8802C0880F991F0A94E1
:104F4000E2F7808360E079E08DE390E0A4019301D3
:104F50000E94F8282150304040405040CA01B90119
:104F600022E030E040E050E00E94F82804C0E885EC
:104F7000F98510829501EC81FD813083EE81FF81FE
:104F80002083EA85FB85208141E050E0CA010E8440
:104F900002C0880F991F0A94E2F7282B2083EA8524
:104FA000FB852081CA010F8402C0880F991F0A94D3
:104FB000E2F7282B2083EA85FB858081088802C0E0
:104FC000440F551F0A94E2F7842B8083DF91CF9121
:104FD0001F910F91FF90EF90DF90CF90BF90AF9017
:104FE0009F908F907F906F905F900895FC01A085B7
:104FF000B18521898C9190E0022E02C0959587950C
:105000000A94E2F780FFF6CF0484F585E02D6083F3
:1050100008958BE791E09093800280937F028BEF5D
:1050200091E0909382028093810285EC90E09093CE
:1050300084028093830284EC90E0909386028093B4
:10504000850280EC90E0909388028093870281EC47
:1050500090E090938A028093890286EC90E090938E
:105060008C0280938B0284E080938D0283E0809396
:105070008E0287E080938F0285E08093900281E02A
:105080008093910208950F931F93CF93DF938C0128
:10509000EB0109C02196D801ED91FC910190F081BE
:1050A000E02DC801099568816623A1F7DF91CF91B2
:1050B0001F910F910895EF92FF920F931F93CF933B
:1050C000DF938C017B01EA010CC0D7016D917D015A
:1050D000D801ED91FC910190F081E02DC801099576
:1050E0002197209791F7DF91CF911F910F91FF901A
:1050F000EF900895EF92FF920F931F937B018C0125
:10510000611571058105910529F420E030E040E04A
:1051100050E00BC00E94FB20A80197010E94F828D4
:10512000AC01CB01DA019C01AD01B901CA011F91AB
:105130000F91FF90EF900895009729F0BC0180E057
:1051400090E00E9400210895629FD001739FF001BA
:10515000829FE00DF11D649FE00DF11D929FF00D07
:10516000839FF00D749FF00D659FF00D9927729F3E
:10517000B00DE11DF91F639FB00DE11DF91FBD01C9
:10518000CF011124089597FB092E07260AD077FD39
:1051900004D049D006D000201AF4709561957F4F55
:1051A0000895F6F7909581959F4F0895A1E21A2EE4
:1051B000AA1BBB1BFD010DC0AA1FBB1FEE1FFF1FBB
:1051C000A217B307E407F50720F0A21BB30BE40B0B
:1051D000F50B661F771F881F991F1A9469F7609552
:1051E0007095809590959B01AC01BD01CF0108950C
:1051F00097FB092E05260ED057FD04D0D7DF0AD025
:10520000001C38F450954095309521953F4F4F4FF5
:105210005F4F0895F6F790958095709561957F4F53
:105220008F4F9F4F0895AA1BBB1B51E107C0AA1FB8
:10523000BB1FA617B70710F0A61BB70B881F991F37
:105240005A95A9F780959095BC01CD010895EE0F70
:10525000FF1F0590F491E02D09942F923F924F92F9
:105260005F926F927F928F929F92AF92BF92CF92F6
:10527000DF92EF92FF920F931F93CF93DF93CDB7FF
:10528000DEB7CA1BDB0B0FB6F894DEBF0FBECDBF77
:1052900009942A88398848885F846E847D848C8448
:1052A0009B84AA84B984C884DF80EE80FD800C8151
:1052B0001B81AA81B981CE0FD11D0FB6F894DEBF34
:0C52C0000FBECDBFED010895F894FFCFA4
:1052CC00544543484E4F4C4F4749432020205445AA
:1052DC0043484E4F4C4F474943002020202020206C
:1052EC00444146542050554E4B007C207C207C2061
:1052FC007C207C207C207C207C207C207C207C20C2
:10530C007C207C207C207C007C7C7C7C7C7C7C7C61
:10531C007C7C7C7C7C7C7C7C7C7C7C7C7C7C7C7CC1
:10532C007C7C00486F6C61204D756E646F000100D1
:10533C000000630101000100000000F62743285B18
:02534C00280037
:00000001FF
